:100000000C945D000C9485000C9485000C94850084
:100010000C9485000C9485000C9485000C9485004C
:100020000C9485000C9485000C9485000C9485003C
:100030000C9485000C9485000C9485000C9485002C
:100040000C9433010C9485000C9485000C9485006D
:100050000C9485000C9485000C9485000C9485000C
:100060000C9485000C94850000000008000201003B
:100070000003040700000000000000000102040863
:100080001020408001020408102001020408102002
:10009000040404040404040402020202020203032E
:1000A0000303030300000000250028002B000000CC
:1000B0000000240027002A00610211241FBECFEF98
:1000C000D8E0DEBFCDBF11E0A0E0B1E0E4EEF5E0A6
:1000D00002C005900D92A433B107D9F721E0A4E343
:1000E000B1E001C01D92A535B207E1F710E0CDE502
:1000F000D0E004C02197FE010E94EA02CC35D1076E
:10010000C9F70E9424010C94F0020C94000061E0F5
:1001100080913A010E94ED0161E0809106010E9408
:10012000ED0161E0809108010E94ED0161E08091A4
:100130000A010E94ED0161E080910C010E94ED0135
:1001400061E080910E010E94ED0161E0809110015B
:100150000E94ED0161E0809112010C94ED01CF92BB
:10016000DF92EF92FF920F931F930E947D01009107
:1001700034011091350120913601309137016B0126
:100180007C01C01AD10AE20AF30A44EFC41641E026
:10019000D406E104F10408F44FC060933401709375
:1001A0003501809336019093370180913801909109
:1001B0003901892B39F481E090E0909339018093E3
:1001C000380104C010923901109238016091380151
:1001D00080913A010E9429026091380180910601C4
:1001E0000E94290260913801809108010E94290231
:1001F0006091380180910A010E94290260913801C2
:1002000080910C010E9429026091380180910E01B9
:100210000E94290260913801809110010E942902F8
:1002200060913801809112011F910F91FF90EF9022
:10023000DF90CF900C9429021F910F91FF90EF90C7
:10024000DF90CF90089508950E9489010E942301B4
:100250000E948700C0E0D0E00E94AF002097E1F349
:100260000E940000F9CF1F920F920FB60F92112437
:100270002F933F938F939F93AF93BF9380913D01B3
:1002800090913E01A0913F01B091400130913C011D
:1002900023E0230F2D3720F40196A11DB11D05C0C9
:1002A00026E8230F0296A11DB11D20933C018093E7
:1002B0003D0190933E01A0933F01B0934001809196
:1002C000410190914201A0914301B09144010196F6
:1002D000A11DB11D8093410190934201A093430160
:1002E000B0934401BF91AF919F918F913F912F9116
:1002F0000F900FBE0F901F9018952FB7F894609134
:100300003D0170913E0180913F01909140012FBFCE
:100310000895789484B5826084BD84B5816084BD7D
:1003200085B5826085BD85B5816085BDEEE6F0E06E
:10033000808181608083E1E8F0E0108280818260CA
:100340008083808181608083E0E8F0E0808181604B
:100350008083E1EBF0E0808184608083E0EBF0E07B
:10036000808181608083EAE7F0E08081846080831F
:1003700080818260808380818160808380818068C9
:1003800080831092C1000895833081F028F4813079
:1003900099F08230A1F008958730A9F08830B9F043
:1003A0008430D1F4809180008F7D03C080918000E3
:1003B0008F7780938000089584B58F7702C084B5CD
:1003C0008F7D84BD08958091B0008F7703C08091A8
:1003D000B0008F7D8093B0000895CF93DF9390E0BD
:1003E000FC01E458FF4F2491FC01E057FF4F84913A
:1003F000882361F190E0880F991FFC01E255FF4FBF
:10040000C591D491FC01EC55FF4FA591B4916111B8
:1004100009C09FB7F8948881209582238883EC9146
:100420002E230BC0623061F49FB7F8943881822F7D
:10043000809583238883EC912E2B2C939FBF06C03D
:100440008FB7F894E8812E2B28838FBFDF91CF914F
:1004500008951F93CF93DF93282F30E0F901E859D7
:10046000FF4F8491F901E458FF4FD491F901E0570F
:10047000FF4FC491CC23C9F0162F81110E94C401F3
:10048000EC2FF0E0EE0FFF1FEC55FF4FA591B4915C
:100490008FB7F894111105C09C91ED2FE095E923D9
:1004A00002C0EC91ED2BEC938FBFDF91CF911F91A8
:1004B0000895EFEFF0E083E08083608381E090E0D7
:1004C000089589E491E00E94D602E5E4F1E0138208
:1004D000128288E191E0918380830895CF92DF9228
:1004E000EF92FF920F931F93CF93DF936C017A01EA
:1004F0008B01C0E0D0E0CE15DF0589F0D8016D9109
:100500008D01D601ED91FC910190F081E02DC601A5
:100510000995892B11F47E0102C02196ECCFC70109
:10052000DF91CF911F910F91FF90EF90DF90CF90CF
:1005300008956115710579F0FB0101900020E9F73C
:100540003197AF01461B570BDC01ED91FC91028006
:10055000F381E02D099480E090E00895DC01ED91B5
:10056000FC910190F081E02D09946CE171E00C9414
:100570009902FC0153834283648315820895CF93CB
:10058000DF93EC018A819B81009769F06F81611193
:100590000E94AE028C81882331F08A819B81DF9199
:1005A000CF910C94B502DF91CF910895FC018FE2B9
:1005B00091E09183808313821282148215821682C5
:1005C000178282E090E0918780878AE090E09387AD
:1005D00082870895EE0FFF1F0590F491E02D099496
:0405E000F894FFCFBD
:1005E4000000550180000200030004000800090017
:1005F4000A000B000000000059026E020D0A006E92
:10060400616E00696E66006F76660000000000B9D6
:0406140002BF02001F
:00000001FF
